{"abi":[{"type":"constructor","inputs":[{"name":"_exchange","type":"address","internalType":"address"}],"stateMutability":"nonpayable"},{"type":"receive","stateMutability":"payable"},{"type":"function","name":"cancelOwnershipHandover","inputs":[],"outputs":[],"stateMutability":"payable"},{"type":"function","name":"completeOwnershipHandover","inputs":[{"name":"pendingOwner","type":"address","internalType":"address"}],"outputs":[],"stateMutability":"payable"},{"type":"function","name":"contracts","inputs":[{"name":"","type":"uint256","internalType":"uint256"}],"outputs":[{"name":"buyer","type":"address","internalType":"address"},{"name":"amount","type":"uint256","internalType":"uint256"},{"name":"exchangeRage","type":"uint256","internalType":"uint256"},{"name":"isBuyOrder","type":"bool","internalType":"bool"},{"name":"expireDate","type":"uint256","internalType":"uint256"},{"name":"executed","type":"bool","internalType":"bool"}],"stateMutability":"view"},{"type":"function","name":"createBuyFuture","inputs":[{"name":"exchangeRate","type":"uint256","internalType":"uint256"},{"name":"durationDays","type":"uint256","internalType":"uint256"}],"outputs":[],"stateMutability":"payable"},{"type":"function","name":"createSellFuture","inputs":[{"name":"tokenAmount","type":"uint256","internalType":"uint256"},{"name":"exchangeRate","type":"uint256","internalType":"uint256"},{"name":"durationDays","type":"uint256","internalType":"uint256"}],"outputs":[],"stateMutability":"nonpayable"},{"type":"function","name":"exchange","inputs":[],"outputs":[{"name":"","type":"address","internalType":"contract TokenExchange"}],"stateMutability":"view"},{"type":"function","name":"exchangeAddress","inputs":[],"outputs":[{"name":"","type":"address","internalType":"address"}],"stateMutability":"view"},{"type":"function","name":"executeFuture","inputs":[{"name":"contractId","type":"uint256","internalType":"uint256"}],"outputs":[],"stateMutability":"nonpayable"},{"type":"function","name":"feeDenominator","inputs":[],"outputs":[{"name":"","type":"uint256","internalType":"uint256"}],"stateMutability":"view"},{"type":"function","name":"feeNumerator","inputs":[],"outputs":[{"name":"","type":"uint256","internalType":"uint256"}],"stateMutability":"view"},{"type":"function","name":"owner","inputs":[],"outputs":[{"name":"result","type":"address","internalType":"address"}],"stateMutability":"view"},{"type":"function","name":"ownershipHandoverExpiresAt","inputs":[{"name":"pendingOwner","type":"address","internalType":"address"}],"outputs":[{"name":"result","type":"uint256","internalType":"uint256"}],"stateMutability":"view"},{"type":"function","name":"renounceOwnership","inputs":[],"outputs":[],"stateMutability":"payable"},{"type":"function","name":"requestOwnershipHandover","inputs":[],"outputs":[],"stateMutability":"payable"},{"type":"function","name":"token","inputs":[],"outputs":[{"name":"","type":"address","internalType":"contract Token"}],"stateMutability":"view"},{"type":"function","name":"transferOwnership","inputs":[{"name":"newOwner","type":"address","internalType":"address"}],"outputs":[],"stateMutability":"payable"},{"type":"event","name":"ContractCreated","inputs":[{"name":"contractId","type":"uint256","indexed":true,"internalType":"uint256"},{"name":"buyer","type":"address","indexed":true,"internalType":"address"},{"name":"amount","type":"uint256","indexed":false,"internalType":"uint256"},{"name":"exhcnageRate","type":"uint256","indexed":false,"internalType":"uint256"},{"name":"expiryDate","type":"uint256","indexed":false,"internalType":"uint256"},{"name":"isBuyOrder","type":"bool","indexed":false,"internalType":"bool"}],"anonymous":false},{"type":"event","name":"ContractExecuted","inputs":[{"name":"contractId","type":"uint256","indexed":true,"internalType":"uint256"}],"anonymous":false},{"type":"event","name":"ContractExpired","inputs":[{"name":"contractId","type":"uint256","indexed":true,"internalType":"uint256"}],"anonymous":false},{"type":"event","name":"OwnershipHandoverCanceled","inputs":[{"name":"pendingOwner","type":"address","indexed":true,"internalType":"address"}],"anonymous":false},{"type":"event","name":"OwnershipHandoverRequested","inputs":[{"name":"pendingOwner","type":"address","indexed":true,"internalType":"address"}],"anonymous":false},{"type":"event","name":"OwnershipTransferred","inputs":[{"name":"oldOwner","type":"address","indexed":true,"internalType":"address"},{"name":"newOwner","type":"address","indexed":true,"internalType":"address"}],"anonymous":false},{"type":"error","name":"AlreadyInitialized","inputs":[]},{"type":"error","name":"NewOwnerIsZeroAddress","inputs":[]},{"type":"error","name":"NoHandoverRequest","inputs":[]},{"type":"error","name":"Unauthorized","inputs":[]}],"bytecode":{"object":"0x608060405260146004556064600555348015610019575f5ffd5b506040516126ba3803806126ba833981810160405281019061003b91906101eb565b8060015f6101000a81548173ffffffffffffffffffffffffffffffffffffffff021916908373ffffffffffffffffffffffffffffffffffffffff16021790555060015f9054906101000a900473ffffffffffffffffffffffffffffffffffffffff1673ffffffffffffffffffffffffffffffffffffffff16639d76ea586040518163ffffffff1660e01b8152600401602060405180830381865afa1580156100e5573d5f5f3e3d5ffd5b505050506040513d601f19601f8201168201806040525081019061010991906101eb565b5f5f6101000a81548173ffffffffffffffffffffffffffffffffffffffff021916908373ffffffffffffffffffffffffffffffffffffffff1602179055508060025f6101000a81548173ffffffffffffffffffffffffffffffffffffffff021916908373ffffffffffffffffffffffffffffffffffffffff16021790555050610216565b5f5ffd5b5f73ffffffffffffffffffffffffffffffffffffffff82169050919050565b5f6101ba82610191565b9050919050565b6101ca816101b0565b81146101d4575f5ffd5b50565b5f815190506101e5816101c1565b92915050565b5f60208284031215610200576101ff61018d565b5b5f61020d848285016101d7565b91505092915050565b612497806102235f395ff3fe6080604052600436106100f6575f3560e01c80639cd0160511610089578063f04e283e11610058578063f04e283e1461029e578063f2fde38b146102ba578063fc0c546a146102d6578063fee81cf414610300576100fd565b80639cd0160514610204578063d2f7265a1461022e578063d6d7657814610258578063e86dea4a14610274576100fd565b80634e5231ab116100c55780634e5231ab1461019e57806354d1f13d146101c6578063715018a6146101d05780638da5cb5b146101da576100fd565b8063180b0d7e1461010157806319cd114f1461012b5780632569296214610153578063474da79a1461015d576100fd565b366100fd57005b5f5ffd5b34801561010c575f5ffd5b5061011561033c565b6040516101229190611be4565b60405180910390f35b348015610136575f5ffd5b50610151600480360381019061014c9190611c2b565b610342565b005b61015b61121d565b005b348015610168575f5ffd5b50610183600480360381019061017e9190611c2b565b61126e565b60405161019596959493929190611caf565b60405180910390f35b3480156101a9575f5ffd5b506101c460048036038101906101bf9190611d0e565b6112ec565b005b6101ce61163b565b005b6101d8611674565b005b3480156101e5575f5ffd5b506101ee611687565b6040516101fb9190611d5e565b60405180910390f35b34801561020f575f5ffd5b506102186116af565b6040516102259190611d5e565b60405180910390f35b348015610239575f5ffd5b506102426116d4565b60405161024f9190611dd2565b60405180910390f35b610272600480360381019061026d9190611deb565b6116f9565b005b34801561027f575f5ffd5b50610288611894565b6040516102959190611be4565b60405180910390f35b6102b860048036038101906102b39190611e53565b61189a565b005b6102d460048036038101906102cf9190611e53565b6118d8565b005b3480156102e1575f5ffd5b506102ea611901565b6040516102f79190611e9e565b60405180910390f35b34801561030b575f5ffd5b5061032660048036038101906103219190611e53565b611925565b6040516103339190611be4565b60405180910390f35b60055481565b5f6003828154811061035757610356611eb7565b5b905f5260205f2090600602016040518060c00160405290815f82015f9054906101000a900473ffffffffffffffffffffffffffffffffffffffff1673ffffffffffffffffffffffffffffffffffffffff1673ffffffffffffffffffffffffffffffffffffffff1681526020016001820154815260200160028201548152602001600382015f9054906101000a900460ff1615151515815260200160048201548152602001600582015f9054906101000a900460ff16151515158152505090508060a001511561045b576040517f08c379a000000000000000000000000000000000000000000000000000000000815260040161045290611f3e565b60405180910390fd5b5f5f90505f8260600151156105bb5760015f9054906101000a900473ffffffffffffffffffffffffffffffffffffffff1673ffffffffffffffffffffffffffffffffffffffff16634bad95106040518163ffffffff1660e01b8152600401602060405180830381865afa1580156104d4573d5f5f3e3d5ffd5b505050506040513d601f19601f820116820180604052508101906104f89190611f70565b670de0b6b3a764000060015f9054906101000a900473ffffffffffffffffffffffffffffffffffffffff1673ffffffffffffffffffffffffffffffffffffffff166397adce1c6040518163ffffffff1660e01b8152600401602060405180830381865afa15801561056b573d5f5f3e3d5ffd5b505050506040513d601f19601f8201168201806040525081019061058f9190611f70565b6105999190611fc8565b6105a39190612036565b905082604001518110156105b657600191505b610708565b60015f9054906101000a900473ffffffffffffffffffffffffffffffffffffffff1673ffffffffffffffffffffffffffffffffffffffff166397adce1c6040518163ffffffff1660e01b8152600401602060405180830381865afa158015610625573d5f5f3e3d5ffd5b505050506040513d601f19601f820116820180604052508101906106499190611f70565b670de0b6b3a764000060015f9054906101000a900473ffffffffffffffffffffffffffffffffffffffff1673ffffffffffffffffffffffffffffffffffffffff16634bad95106040518163ffffffff1660e01b8152600401602060405180830381865afa1580156106bc573d5f5f3e3d5ffd5b505050506040513d601f19601f820116820180604052508101906106e09190611f70565b6106ea9190611fc8565b6106f49190612036565b9050826040015181111561070757600191505b5b82608001514210610b58575f6005546004546005546107279190612066565b85602001516107369190611fc8565b6107409190612036565b90505f60055460026004546107559190612036565b86602001516107649190611fc8565b61076e9190612036565b9050600554818361077f9190612099565b1115610789575f90505b8460600151156109a1575f855f015173ffffffffffffffffffffffffffffffffffffffff16836040516107bb906120f9565b5f6040518083038185875af1925050503d805f81146107f5576040519150601f19603f3d011682016040523d82523d5f602084013e6107fa565b606091505b505090508061083e576040517f08c379a000000000000000000000000000000000000000000000000000000000815260040161083590612157565b60405180910390fd5b5f82111561099b575f60015f9054906101000a900473ffffffffffffffffffffffffffffffffffffffff1673ffffffffffffffffffffffffffffffffffffffff16632eab28418460646050896108949190611fc8565b61089e9190612036565b6040518363ffffffff1660e01b81526004016108ba9190611be4565b60206040518083038185885af11580156108d6573d5f5f3e3d5ffd5b50505050506040513d601f19601f820116820180604052508101906108fb9190611f70565b90505f5f9054906101000a900473ffffffffffffffffffffffffffffffffffffffff1673ffffffffffffffffffffffffffffffffffffffff1663a9059cbb33836040518363ffffffff1660e01b8152600401610958929190612175565b6020604051808303815f875af1158015610974573d5f5f3e3d5ffd5b505050506040513d601f19601f8201168201806040525081019061099891906121c6565b50505b50610ae6565b5f5f9054906101000a900473ffffffffffffffffffffffffffffffffffffffff1673ffffffffffffffffffffffffffffffffffffffff1663a9059cbb865f0151846040518363ffffffff1660e01b81526004016109ff929190612175565b6020604051808303815f875af1158015610a1b573d5f5f3e3d5ffd5b505050506040513d601f19601f82011682018060405250810190610a3f91906121c6565b505f811115610ae5575f5f9054906101000a900473ffffffffffffffffffffffffffffffffffffffff1673ffffffffffffffffffffffffffffffffffffffff1663a9059cbb33836040518363ffffffff1660e01b8152600401610aa3929190612175565b6020604051808303815f875af1158015610abf573d5f5f3e3d5ffd5b505050506040513d601f19601f82011682018060405250810190610ae391906121c6565b505b5b857f9325fbfd991d20e53f36adfe94b443a61b400da1d2fa18bc3c8dd6744c10a0fa60405160405180910390a2600160038781548110610b2957610b28611eb7565b5b905f5260205f2090600602016005015f6101000a81548160ff021916908315150217905550505050505061121a565b825f015173ffffffffffffffffffffffffffffffffffffffff163373ffffffffffffffffffffffffffffffffffffffff1614610bdc5781610bdb578260800151421015610bda576040517f08c379a0000000000000000000000000000000000000000000000000000000008152600401610bd19061223b565b60405180910390fd5b5b5b826060015115610e39575f60015f9054906101000a900473ffffffffffffffffffffffffffffffffffffffff1673ffffffffffffffffffffffffffffffffffffffff16632eab284185602001516064605086610c389190611fc8565b610c429190612036565b6040518363ffffffff1660e01b8152600401610c5e9190611be4565b60206040518083038185885af1158015610c7a573d5f5f3e3d5ffd5b50505050506040513d601f19601f82011682018060405250810190610c9f9190611f70565b90505f600554600454600554610cb59190612066565b83610cc09190611fc8565b610cca9190612036565b90505f6005546002600454610cdf9190612036565b83610cea9190611fc8565b610cf49190612036565b90505f5f9054906101000a900473ffffffffffffffffffffffffffffffffffffffff1673ffffffffffffffffffffffffffffffffffffffff1663a9059cbb875f0151846040518363ffffffff1660e01b8152600401610d54929190612175565b6020604051808303815f875af1158015610d70573d5f5f3e3d5ffd5b505050506040513d601f19601f82011682018060405250810190610d9491906121c6565b505f5f9054906101000a900473ffffffffffffffffffffffffffffffffffffffff1673ffffffffffffffffffffffffffffffffffffffff1663a9059cbb33836040518363ffffffff1660e01b8152600401610df0929190612175565b6020604051808303815f875af1158015610e0c573d5f5f3e3d5ffd5b505050506040513d601f19601f82011682018060405250810190610e3091906121c6565b505050506111ae565b5f600554600454600554610e4d9190612066565b8560200151610e5c9190611fc8565b610e669190612036565b90505f6005546002600454610e7b9190612036565b8660200151610e8a9190611fc8565b610e949190612036565b90506005548183610ea59190612099565b1115610eaf575f90505b5f5f9054906101000a900473ffffffffffffffffffffffffffffffffffffffff1673ffffffffffffffffffffffffffffffffffffffff1663095ea7b360025f9054906101000a900473ffffffffffffffffffffffffffffffffffffffff16846040518363ffffffff1660e01b8152600401610f2b929190612175565b6020604051808303815f875af1158015610f47573d5f5f3e3d5ffd5b505050506040513d601f19601f82011682018060405250810190610f6b91906121c6565b505f60015f9054906101000a900473ffffffffffffffffffffffffffffffffffffffff1673ffffffffffffffffffffffffffffffffffffffff1663a22280a6846064607888610fba9190611fc8565b610fc49190612036565b6040518363ffffffff1660e01b8152600401610fe1929190612259565b6020604051808303815f875af1158015610ffd573d5f5f3e3d5ffd5b505050506040513d601f19601f820116820180604052508101906110219190611f70565b90505f865f015173ffffffffffffffffffffffffffffffffffffffff168260405161104b906120f9565b5f6040518083038185875af1925050503d805f8114611085576040519150601f19603f3d011682016040523d82523d5f602084013e61108a565b606091505b50509050806110ce576040517f08c379a00000000000000000000000000000000000000000000000000000000081526004016110c590612157565b60405180910390fd5b61110d6040518060400160405280601181526020017f50617920666f72206d696e65723a2025730000000000000000000000000000008152508461193e565b5f5f9054906101000a900473ffffffffffffffffffffffffffffffffffffffff1673ffffffffffffffffffffffffffffffffffffffff1663a9059cbb33856040518363ffffffff1660e01b8152600401611168929190612175565b6020604051808303815f875af1158015611184573d5f5f3e3d5ffd5b505050506040513d601f19601f820116820180604052508101906111a891906121c6565b50505050505b6001600385815481106111c4576111c3611eb7565b5b905f5260205f2090600602016005015f6101000a81548160ff021916908315150217905550837fbc0a5fde0c745493c2c0b1d37c422e54adc427ec1edfeaa3ee99553b142fb0e660405160405180910390a25050505b50565b5f6112266119da565b67ffffffffffffffff164201905063389a75e1600c52335f52806020600c2055337fdbf36a107da19e49527a7176a1babf963b4b0ff8cde35ee35d6cd8f1f9ac7e1d5f5fa250565b6003818154811061127d575f80fd5b905f5260205f2090600602015f91509050805f015f9054906101000a900473ffffffffffffffffffffffffffffffffffffffff1690806001015490806002015490806003015f9054906101000a900460ff1690806004015490806005015f9054906101000a900460ff16905086565b61132a6040518060400160405280600881526020017f45786563757465640000000000000000000000000000000000000000000000008152506119e4565b825f5f9054906101000a900473ffffffffffffffffffffffffffffffffffffffff1673ffffffffffffffffffffffffffffffffffffffff166370a08231336040518263ffffffff1660e01b81526004016113849190611d5e565b602060405180830381865afa15801561139f573d5f5f3e3d5ffd5b505050506040513d601f19601f820116820180604052508101906113c39190611f70565b11611403576040517f08c379a00000000000000000000000000000000000000000000000000000000081526004016113fa906122f0565b60405180910390fd5b5f5f9054906101000a900473ffffffffffffffffffffffffffffffffffffffff1673ffffffffffffffffffffffffffffffffffffffff166323b872dd3330866040518463ffffffff1660e01b81526004016114609392919061230e565b6020604051808303815f875af115801561147c573d5f5f3e3d5ffd5b505050506040513d601f19601f820116820180604052508101906114a091906121c6565b505f62015180826114b19190611fc8565b426114bc9190612099565b905060036040518060c001604052803373ffffffffffffffffffffffffffffffffffffffff1681526020018681526020018581526020015f151581526020018381526020015f1515815250908060018154018082558091505060019003905f5260205f2090600602015f909190919091505f820151815f015f6101000a81548173ffffffffffffffffffffffffffffffffffffffff021916908373ffffffffffffffffffffffffffffffffffffffff16021790555060208201518160010155604082015181600201556060820151816003015f6101000a81548160ff0219169083151502179055506080820151816004015560a0820151816005015f6101000a81548160ff02191690831515021790555050503373ffffffffffffffffffffffffffffffffffffffff1660016003805490506115f89190612066565b7f1a5738677ca652c81cd2e0544a4e30c34ef091aa2ff08031bbbee307540a54ad8686855f60405161162d9493929190612343565b60405180910390a350505050565b63389a75e1600c52335f525f6020600c2055337ffa7b8eab7da67f412cc9575ed43464468f9bfbae89d1675917346ca6d8fe3c925f5fa2565b61167c611a7d565b6116855f611ab4565b565b5f7fffffffffffffffffffffffffffffffffffffffffffffffffffffffff7487392754905090565b60025f9054906101000a900473ffffffffffffffffffffffffffffffffffffffff1681565b60015f9054906101000a900473ffffffffffffffffffffffffffffffffffffffff1681565b5f62015180826117099190611fc8565b426117149190612099565b905060036040518060c001604052803373ffffffffffffffffffffffffffffffffffffffff1681526020013481526020018581526020016001151581526020018381526020015f1515815250908060018154018082558091505060019003905f5260205f2090600602015f909190919091505f820151815f015f6101000a81548173ffffffffffffffffffffffffffffffffffffffff021916908373ffffffffffffffffffffffffffffffffffffffff16021790555060208201518160010155604082015181600201556060820151816003015f6101000a81548160ff0219169083151502179055506080820151816004015560a0820151816005015f6101000a81548160ff02191690831515021790555050503373ffffffffffffffffffffffffffffffffffffffff1660016003805490506118519190612066565b7f1a5738677ca652c81cd2e0544a4e30c34ef091aa2ff08031bbbee307540a54ad34868560016040516118879493929190612343565b60405180910390a3505050565b60045481565b6118a2611a7d565b63389a75e1600c52805f526020600c2080544211156118c857636f5e88185f526004601cfd5b5f8155506118d581611ab4565b50565b6118e0611a7d565b8060601b6118f557637448fbae5f526004601cfd5b6118fe81611ab4565b50565b5f5f9054906101000a900473ffffffffffffffffffffffffffffffffffffffff1681565b5f63389a75e1600c52815f526020600c20549050919050565b6119d682826040516024016119549291906123e6565b6040516020818303038152906040527fb60e72cc000000000000000000000000000000000000000000000000000000007bffffffffffffffffffffffffffffffffffffffffffffffffffffffff19166020820180517bffffffffffffffffffffffffffffffffffffffffffffffffffffffff8381831617835250505050611b7a565b5050565b5f6202a300905090565b611a7a816040516024016119f89190612414565b6040516020818303038152906040527f41304fac000000000000000000000000000000000000000000000000000000007bffffffffffffffffffffffffffffffffffffffffffffffffffffffff19166020820180517bffffffffffffffffffffffffffffffffffffffffffffffffffffffff8381831617835250505050611b7a565b50565b7fffffffffffffffffffffffffffffffffffffffffffffffffffffffff74873927543314611ab2576382b429005f526004601cfd5b565b611abc611b94565b15611b21577fffffffffffffffffffffffffffffffffffffffffffffffffffffffff748739278160601b60601c91508181547f8be0079c531659141344cd1fd0a4f28419497f9722a3daafe3b4186f6b6457e05f5fa3811560ff1b8217815550611b77565b7fffffffffffffffffffffffffffffffffffffffffffffffffffffffff748739278160601b60601c91508181547f8be0079c531659141344cd1fd0a4f28419497f9722a3daafe3b4186f6b6457e05f5fa3818155505b50565b611b9181611b89611b98611bb7565b63ffffffff16565b50565b5f90565b5f6a636f6e736f6c652e6c6f6790505f5f835160208501845afa505050565b611bc2819050919050565b611bca612434565b565b5f819050919050565b611bde81611bcc565b82525050565b5f602082019050611bf75f830184611bd5565b92915050565b5f5ffd5b611c0a81611bcc565b8114611c14575f5ffd5b50565b5f81359050611c2581611c01565b92915050565b5f60208284031215611c4057611c3f611bfd565b5b5f611c4d84828501611c17565b91505092915050565b5f73ffffffffffffffffffffffffffffffffffffffff82169050919050565b5f611c7f82611c56565b9050919050565b611c8f81611c75565b82525050565b5f8115159050919050565b611ca981611c95565b82525050565b5f60c082019050611cc25f830189611c86565b611ccf6020830188611bd5565b611cdc6040830187611bd5565b611ce96060830186611ca0565b611cf66080830185611bd5565b611d0360a0830184611ca0565b979650505050505050565b5f5f5f60608486031215611d2557611d24611bfd565b5b5f611d3286828701611c17565b9350506020611d4386828701611c17565b9250506040611d5486828701611c17565b9150509250925092565b5f602082019050611d715f830184611c86565b92915050565b5f819050919050565b5f611d9a611d95611d9084611c56565b611d77565b611c56565b9050919050565b5f611dab82611d80565b9050919050565b5f611dbc82611da1565b9050919050565b611dcc81611db2565b82525050565b5f602082019050611de55f830184611dc3565b92915050565b5f5f60408385031215611e0157611e00611bfd565b5b5f611e0e85828601611c17565b9250506020611e1f85828601611c17565b9150509250929050565b611e3281611c75565b8114611e3c575f5ffd5b50565b5f81359050611e4d81611e29565b92915050565b5f60208284031215611e6857611e67611bfd565b5b5f611e7584828501611e3f565b91505092915050565b5f611e8882611da1565b9050919050565b611e9881611e7e565b82525050565b5f602082019050611eb15f830184611e8f565b92915050565b7f4e487b71000000000000000000000000000000000000000000000000000000005f52603260045260245ffd5b5f82825260208201905092915050565b7f436f6e747261637420616c7265616479206578656375746564000000000000005f82015250565b5f611f28601983611ee4565b9150611f3382611ef4565b602082019050919050565b5f6020820190508181035f830152611f5581611f1c565b9050919050565b5f81519050611f6a81611c01565b92915050565b5f60208284031215611f8557611f84611bfd565b5b5f611f9284828501611f5c565b91505092915050565b7f4e487b71000000000000000000000000000000000000000000000000000000005f52601160045260245ffd5b5f611fd282611bcc565b9150611fdd83611bcc565b9250828202611feb81611bcc565b9150828204841483151761200257612001611f9b565b5b5092915050565b7f4e487b71000000000000000000000000000000000000000000000000000000005f52601260045260245ffd5b5f61204082611bcc565b915061204b83611bcc565b92508261205b5761205a612009565b5b828204905092915050565b5f61207082611bcc565b915061207b83611bcc565b925082820390508181111561209357612092611f9b565b5b92915050565b5f6120a382611bcc565b91506120ae83611bcc565b92508282019050808211156120c6576120c5611f9b565b5b92915050565b5f81905092915050565b50565b5f6120e45f836120cc565b91506120ef826120d6565b5f82019050919050565b5f612103826120d9565b9150819050919050565b7f455448207472616e73666572206661696c6564000000000000000000000000005f82015250565b5f612141601383611ee4565b915061214c8261210d565b602082019050919050565b5f6020820190508181035f83015261216e81612135565b9050919050565b5f6040820190506121885f830185611c86565b6121956020830184611bd5565b9392505050565b6121a581611c95565b81146121af575f5ffd5b50565b5f815190506121c08161219c565b92915050565b5f602082840312156121db576121da611bfd565b5b5f6121e8848285016121b2565b91505092915050565b7f436f6e7472616374206e6f7420657870697265642079657400000000000000005f82015250565b5f612225601883611ee4565b9150612230826121f1565b602082019050919050565b5f6020820190508181035f83015261225281612219565b9050919050565b5f60408201905061226c5f830185611bd5565b6122796020830184611bd5565b9392505050565b7f427579657220646f6573206e6f74206861766520656e6f75676820746f6b656e5f8201527f7300000000000000000000000000000000000000000000000000000000000000602082015250565b5f6122da602183611ee4565b91506122e582612280565b604082019050919050565b5f6020820190508181035f830152612307816122ce565b9050919050565b5f6060820190506123215f830186611c86565b61232e6020830185611c86565b61233b6040830184611bd5565b949350505050565b5f6080820190506123565f830187611bd5565b6123636020830186611bd5565b6123706040830185611bd5565b61237d6060830184611ca0565b95945050505050565b5f81519050919050565b8281835e5f83830152505050565b5f601f19601f8301169050919050565b5f6123b882612386565b6123c28185611ee4565b93506123d2818560208601612390565b6123db8161239e565b840191505092915050565b5f6040820190508181035f8301526123fe81856123ae565b905061240d6020830184611bd5565b9392505050565b5f6020820190508181035f83015261242c81846123ae565b905092915050565b7f4e487b71000000000000000000000000000000000000000000000000000000005f52605160045260245ffdfea2646970667358221220f7e73f231af15a31e35858988bc8db038552e1cfa63b4d57c35a8a2a7c8fe1f964736f6c634300081c0033","linkReferences":{}},"methodIdentifiers":{"cancelOwnershipHandover()":"54d1f13d","completeOwnershipHandover(address)":"f04e283e","contracts(uint256)":"474da79a","createBuyFuture(uint256,uint256)":"d6d76578","createSellFuture(uint256,uint256,uint256)":"4e5231ab","exchange()":"d2f7265a","exchangeAddress()":"9cd01605","executeFuture(uint256)":"19cd114f","feeDenominator()":"180b0d7e","feeNumerator()":"e86dea4a","owner()":"8da5cb5b","ownershipHandoverExpiresAt(address)":"fee81cf4","renounceOwnership()":"715018a6","requestOwnershipHandover()":"25692962","token()":"fc0c546a","transferOwnership(address)":"f2fde38b"},"id":22}