{"abi":[{"type":"constructor","inputs":[{"name":"tokenAddr","type":"address","internalType":"address"}],"stateMutability":"nonpayable"},{"type":"function","name":"addLiquidity","inputs":[{"name":"maxExchangeRate","type":"uint256","internalType":"uint256"},{"name":"minExchangeRate","type":"uint256","internalType":"uint256"}],"outputs":[],"stateMutability":"payable"},{"type":"function","name":"calculateExchangeRateFromTokensAmount","inputs":[{"name":"fromToken","type":"uint256","internalType":"uint256"},{"name":"toToken","type":"uint256","internalType":"uint256"}],"outputs":[{"name":"","type":"uint256","internalType":"uint256"}],"stateMutability":"view"},{"type":"function","name":"cancelOwnershipHandover","inputs":[],"outputs":[],"stateMutability":"payable"},{"type":"function","name":"completeOwnershipHandover","inputs":[{"name":"pendingOwner","type":"address","internalType":"address"}],"outputs":[],"stateMutability":"payable"},{"type":"function","name":"createPool","inputs":[{"name":"amountTokens","type":"uint256","internalType":"uint256"}],"outputs":[],"stateMutability":"payable"},{"type":"function","name":"ethReserves","inputs":[],"outputs":[{"name":"","type":"uint256","internalType":"uint256"}],"stateMutability":"view"},{"type":"function","name":"getInputPrice","inputs":[{"name":"xAmount","type":"uint256","internalType":"uint256"},{"name":"X","type":"uint256","internalType":"uint256"},{"name":"Y","type":"uint256","internalType":"uint256"}],"outputs":[{"name":"","type":"uint256","internalType":"uint256"}],"stateMutability":"view"},{"type":"function","name":"getLP","inputs":[],"outputs":[{"name":"","type":"address[]","internalType":"address[]"}],"stateMutability":"view"},{"type":"function","name":"getLPT","inputs":[{"name":"sender","type":"address","internalType":"address"}],"outputs":[{"name":"","type":"uint256","internalType":"uint256"}],"stateMutability":"view"},{"type":"function","name":"getSwapFee","inputs":[],"outputs":[{"name":"","type":"uint256","internalType":"uint256"},{"name":"","type":"uint256","internalType":"uint256"}],"stateMutability":"view"},{"type":"function","name":"owner","inputs":[],"outputs":[{"name":"result","type":"address","internalType":"address"}],"stateMutability":"view"},{"type":"function","name":"ownershipHandoverExpiresAt","inputs":[{"name":"pendingOwner","type":"address","internalType":"address"}],"outputs":[{"name":"result","type":"uint256","internalType":"uint256"}],"stateMutability":"view"},{"type":"function","name":"removeAllLiquidity","inputs":[{"name":"maxExchangeRate","type":"uint256","internalType":"uint256"},{"name":"minExchangeRate","type":"uint256","internalType":"uint256"}],"outputs":[],"stateMutability":"payable"},{"type":"function","name":"removeLiquidity","inputs":[{"name":"LPTAmount","type":"uint256","internalType":"uint256"},{"name":"maxExchangeRate","type":"uint256","internalType":"uint256"},{"name":"minExchangeRate","type":"uint256","internalType":"uint256"}],"outputs":[],"stateMutability":"nonpayable"},{"type":"function","name":"renounceOwnership","inputs":[],"outputs":[],"stateMutability":"payable"},{"type":"function","name":"requestOwnershipHandover","inputs":[],"outputs":[],"stateMutability":"payable"},{"type":"function","name":"swapETHForTokens","inputs":[{"name":"minExchangeRate","type":"uint256","internalType":"uint256"}],"outputs":[{"name":"","type":"uint256","internalType":"uint256"}],"stateMutability":"payable"},{"type":"function","name":"swapTokensForETH","inputs":[{"name":"tokenAmount","type":"uint256","internalType":"uint256"},{"name":"maxExchangeRate","type":"uint256","internalType":"uint256"}],"outputs":[{"name":"","type":"uint256","internalType":"uint256"}],"stateMutability":"nonpayable"},{"type":"function","name":"token","inputs":[],"outputs":[{"name":"","type":"address","internalType":"contract Token"}],"stateMutability":"view"},{"type":"function","name":"tokenAddress","inputs":[],"outputs":[{"name":"","type":"address","internalType":"address"}],"stateMutability":"view"},{"type":"function","name":"tokenReserves","inputs":[],"outputs":[{"name":"","type":"uint256","internalType":"uint256"}],"stateMutability":"view"},{"type":"function","name":"transferOwnership","inputs":[{"name":"newOwner","type":"address","internalType":"address"}],"outputs":[],"stateMutability":"payable"},{"type":"event","name":"OwnershipHandoverCanceled","inputs":[{"name":"pendingOwner","type":"address","indexed":true,"internalType":"address"}],"anonymous":false},{"type":"event","name":"OwnershipHandoverRequested","inputs":[{"name":"pendingOwner","type":"address","indexed":true,"internalType":"address"}],"anonymous":false},{"type":"event","name":"OwnershipTransferred","inputs":[{"name":"oldOwner","type":"address","indexed":true,"internalType":"address"},{"name":"newOwner","type":"address","indexed":true,"internalType":"address"}],"anonymous":false},{"type":"event","name":"Swap","inputs":[{"name":"sender","type":"address","indexed":true,"internalType":"address"},{"name":"amountIn","type":"uint256","indexed":false,"internalType":"uint256"},{"name":"amountOut","type":"uint256","indexed":false,"internalType":"uint256"},{"name":"isETH","type":"bool","indexed":false,"internalType":"bool"}],"anonymous":false},{"type":"error","name":"AlreadyInitialized","inputs":[]},{"type":"error","name":"ExchangeRateBelowMinimum","inputs":[{"name":"minRate","type":"uint256","internalType":"uint256"},{"name":"currentRate","type":"uint256","internalType":"uint256"}]},{"type":"error","name":"ExchangeRateExceed","inputs":[{"name":"maxRate","type":"uint256","internalType":"uint256"},{"name":"currentRate","type":"uint256","internalType":"uint256"}]},{"type":"error","name":"NewOwnerIsZeroAddress","inputs":[]},{"type":"error","name":"NoHandoverRequest","inputs":[]},{"type":"error","name":"Unauthorized","inputs":[]}],"bytecode":{"object":"0x60806040525f6002555f6003555f60045560036007556064600855348015610025575f5ffd5b506040516131af3803806131af83398181016040528101906100479190610291565b805f5f6101000a81548173ffffffffffffffffffffffffffffffffffffffff021916908373ffffffffffffffffffffffffffffffffffffffff1602179055508060015f6101000a81548173ffffffffffffffffffffffffffffffffffffffff021916908373ffffffffffffffffffffffffffffffffffffffff1602179055506100d53361015360201b60201c565b5f5f9054906101000a900473ffffffffffffffffffffffffffffffffffffffff1673ffffffffffffffffffffffffffffffffffffffff1660015f9054906101000a900473ffffffffffffffffffffffffffffffffffffffff1673ffffffffffffffffffffffffffffffffffffffff161461014d575f5ffd5b506102bc565b61016161022f60201b60201c565b156101d9577fffffffffffffffffffffffffffffffffffffffffffffffffffffffff7487392780541561019b57630dc149f05f526004601cfd5b8160601b60601c9150811560ff1b82178155815f7f8be0079c531659141344cd1fd0a4f28419497f9722a3daafe3b4186f6b6457e05f5fa35061022c565b8060601b60601c9050807fffffffffffffffffffffffffffffffffffffffffffffffffffffffff7487392755805f7f8be0079c531659141344cd1fd0a4f28419497f9722a3daafe3b4186f6b6457e05f5fa35b50565b5f90565b5f5ffd5b5f73ffffffffffffffffffffffffffffffffffffffff82169050919050565b5f61026082610237565b9050919050565b61027081610256565b811461027a575f5ffd5b50565b5f8151905061028b81610267565b92915050565b5f602082840312156102a6576102a5610233565b5b5f6102b38482850161027d565b91505092915050565b612ee6806102c95f395ff3fe608060405260043610610134575f3560e01c80638da5cb5b116100aa578063a22280a61161006e578063a22280a614610388578063d4cadf68146103c4578063f04e283e146103ef578063f2fde38b1461040b578063fc0c546a14610427578063fee81cf41461045157610134565b80638da5cb5b146102b257806393e7e544146102dc57806397adce1c146103185780639cd441da146103425780639d76ea581461035e57610134565b806358ad6de4116100fc57806358ad6de4146101e2578063715018a6146101fe5780638259e6a01461020857806382c428f914610224578063857620e11461024e57806389f2a8711461027657610134565b80630221a0521461013857806325692962146101745780632eab28411461017e5780634bad9510146101ae57806354d1f13d146101d8575b5f5ffd5b348015610143575f5ffd5b5061015e6004803603810190610159919061212c565b61048d565b60405161016b919061216f565b60405180910390f35b61017c6104d3565b005b610198600480360381019061019391906121b2565b610524565b6040516101a5919061216f565b60405180910390f35b3480156101b9575f5ffd5b506101c26108bd565b6040516101cf919061216f565b60405180910390f35b6101e06108c3565b005b6101fc60048036038101906101f791906121dd565b6108fc565b005b61020661094d565b005b610222600480360381019061021d91906121b2565b610960565b005b34801561022f575f5ffd5b50610238610d67565b60405161024591906122d2565b60405180910390f35b348015610259575f5ffd5b50610274600480360381019061026f91906122f2565b610df2565b005b348015610281575f5ffd5b5061029c600480360381019061029791906122f2565b6113b1565b6040516102a9919061216f565b60405180910390f35b3480156102bd575f5ffd5b506102c6611429565b6040516102d39190612351565b60405180910390f35b3480156102e7575f5ffd5b5061030260048036038101906102fd91906121dd565b611451565b60405161030f919061216f565b60405180910390f35b348015610323575f5ffd5b5061032c611479565b604051610339919061216f565b60405180910390f35b61035c600480360381019061035791906121dd565b61147f565b005b348015610369575f5ffd5b506103726119e6565b60405161037f9190612351565b60405180910390f35b348015610393575f5ffd5b506103ae60048036038101906103a991906121dd565b611a0a565b6040516103bb919061216f565b60405180910390f35b3480156103cf575f5ffd5b506103d8611d85565b6040516103e692919061236a565b60405180910390f35b6104096004803603810190610404919061212c565b611d95565b005b6104256004803603810190610420919061212c565b611dd3565b005b348015610432575f5ffd5b5061043b611dfc565b60405161044891906123ec565b60405180910390f35b34801561045c575f5ffd5b506104776004803603810190610472919061212c565b611e21565b604051610484919061216f565b60405180910390f35b5f60055f8373ffffffffffffffffffffffffffffffffffffffff1673ffffffffffffffffffffffffffffffffffffffff1681526020019081526020015f20549050919050565b5f6104dc611e3a565b67ffffffffffffffff164201905063389a75e1600c52335f52806020600c2055337fdbf36a107da19e49527a7176a1babf963b4b0ff8cde35ee35d6cd8f1f9ac7e1d5f5fa250565b5f5f3490505f811161056b576040517f08c379a000000000000000000000000000000000000000000000000000000000815260040161056290612485565b60405180910390fd5b5f61057b826003546002546113b1565b90506105a0604051806060016040528060298152602001612e88602991398383611e44565b5f600354670de0b6b3a76400006002546105ba91906124d0565b6105c4919061253e565b90508085111561060d5784816040517f88a709b300000000000000000000000000000000000000000000000000000000815260040161060492919061236a565b60405180910390fd5b8160015f9054906101000a900473ffffffffffffffffffffffffffffffffffffffff1673ffffffffffffffffffffffffffffffffffffffff166370a08231306040518263ffffffff1660e01b81526004016106689190612351565b602060405180830381865afa158015610683573d5f5f3e3d5ffd5b505050506040513d601f19601f820116820180604052508101906106a79190612582565b116106e7576040517f08c379a00000000000000000000000000000000000000000000000000000000081526004016106de9061261d565b60405180910390fd5b60015f9054906101000a900473ffffffffffffffffffffffffffffffffffffffff1673ffffffffffffffffffffffffffffffffffffffff1663095ea7b330600185610732919061263b565b6040518363ffffffff1660e01b815260040161074f92919061266e565b6020604051808303815f875af115801561076b573d5f5f3e3d5ffd5b505050506040513d601f19601f8201168201806040525081019061078f91906126ca565b5060015f9054906101000a900473ffffffffffffffffffffffffffffffffffffffff1673ffffffffffffffffffffffffffffffffffffffff166323b872dd3033856040518463ffffffff1660e01b81526004016107ee939291906126f5565b6020604051808303815f875af115801561080a573d5f5f3e3d5ffd5b505050506040513d601f19601f8201168201806040525081019061082e91906126ca565b508160025f828254610840919061272a565b925050819055508260035f828254610858919061263b565b925050819055503373ffffffffffffffffffffffffffffffffffffffff167fcc65e4d9060ece2ecf63011ac580550b04c8daeba63fac4dfe8669353cd88859848460016040516108aa9392919061276c565b60405180910390a2819350505050919050565b60025481565b63389a75e1600c52335f525f6020600c2055337ffa7b8eab7da67f412cc9575ed43464468f9bfbae89d1675917346ca6d8fe3c925f5fa2565b5f60055f3373ffffffffffffffffffffffffffffffffffffffff1673ffffffffffffffffffffffffffffffffffffffff1681526020019081526020015f20549050610948818484610df2565b505050565b610955611ee3565b61095e5f611f1a565b565b610968611ee3565b5f600254146109ac576040517f08c379a00000000000000000000000000000000000000000000000000000000081526004016109a3906127eb565b60405180910390fd5b5f600354146109f0576040517f08c379a00000000000000000000000000000000000000000000000000000000081526004016109e790612853565b60405180910390fd5b5f3411610a32576040517f08c379a0000000000000000000000000000000000000000000000000000000008152600401610a29906128bb565b60405180910390fd5b5f60015f9054906101000a900473ffffffffffffffffffffffffffffffffffffffff1673ffffffffffffffffffffffffffffffffffffffff166370a08231336040518263ffffffff1660e01b8152600401610a8d9190612351565b602060405180830381865afa158015610aa8573d5f5f3e3d5ffd5b505050506040513d601f19601f82011682018060405250810190610acc9190612582565b905080821115610b11576040517f08c379a0000000000000000000000000000000000000000000000000000000008152600401610b0890612949565b60405180910390fd5b5f8211610b53576040517f08c379a0000000000000000000000000000000000000000000000000000000008152600401610b4a906129b1565b60405180910390fd5b60015f9054906101000a900473ffffffffffffffffffffffffffffffffffffffff1673ffffffffffffffffffffffffffffffffffffffff166323b872dd3330856040518463ffffffff1660e01b8152600401610bb1939291906126f5565b6020604051808303815f875af1158015610bcd573d5f5f3e3d5ffd5b505050506040513d601f19601f82011682018060405250810190610bf191906126ca565b5060015f9054906101000a900473ffffffffffffffffffffffffffffffffffffffff1673ffffffffffffffffffffffffffffffffffffffff166370a08231306040518263ffffffff1660e01b8152600401610c4c9190612351565b602060405180830381865afa158015610c67573d5f5f3e3d5ffd5b505050506040513d601f19601f82011682018060405250810190610c8b9190612582565b600281905550346003819055503460055f3373ffffffffffffffffffffffffffffffffffffffff1673ffffffffffffffffffffffffffffffffffffffff1681526020019081526020015f205f828254610ce4919061263b565b92505081905550600633908060018154018082558091505060019003905f5260205f20015f9091909190916101000a81548173ffffffffffffffffffffffffffffffffffffffff021916908373ffffffffffffffffffffffffffffffffffffffff1602179055503460045f828254610d5c919061263b565b925050819055505050565b60606006805480602002602001604051908101604052809291908181526020018280548015610de857602002820191905f5260205f20905b815f9054906101000a900473ffffffffffffffffffffffffffffffffffffffff1673ffffffffffffffffffffffffffffffffffffffff1681526020019060010190808311610d9f575b5050505050905090565b5f8311610e34576040517f08c379a0000000000000000000000000000000000000000000000000000000008152600401610e2b90612a19565b60405180910390fd5b5f3390505f60055f8373ffffffffffffffffffffffffffffffffffffffff1673ffffffffffffffffffffffffffffffffffffffff1681526020019081526020015f2054905084811015610ebc576040517f08c379a0000000000000000000000000000000000000000000000000000000008152600401610eb390612a81565b60405180910390fd5b5f600354670de0b6b3a7640000600254610ed691906124d0565b610ee0919061253e565b90505f600254670de0b6b3a7640000600354610efc91906124d0565b610f06919061253e565b905085821115610f4f5785826040517f4343265b000000000000000000000000000000000000000000000000000000008152600401610f4692919061236a565b60405180910390fd5b84811015610f965784826040517f88a709b3000000000000000000000000000000000000000000000000000000008152600401610f8d92919061236a565b60405180910390fd5b5f600454670de0b6b3a764000089610fae91906124d0565b610fb8919061253e565b90505f670de0b6b3a764000060035483610fd291906124d0565b610fdc919061253e565b90505f670de0b6b3a764000060025484610ff691906124d0565b611000919061253e565b90508160035f828254611013919061272a565b925050819055508060025f82825461102b919061272a565b925050819055505f8773ffffffffffffffffffffffffffffffffffffffff168360405161105790612acc565b5f6040518083038185875af1925050503d805f8114611091576040519150601f19603f3d011682016040523d82523d5f602084013e611096565b606091505b50509050806110da576040517f08c379a00000000000000000000000000000000000000000000000000000000081526004016110d190612b2a565b60405180910390fd5b60015f9054906101000a900473ffffffffffffffffffffffffffffffffffffffff1673ffffffffffffffffffffffffffffffffffffffff1663a9059cbb89846040518363ffffffff1660e01b815260040161113692919061266e565b6020604051808303815f875af1158015611152573d5f5f3e3d5ffd5b505050506040513d601f19601f8201168201806040525081019061117691906126ca565b508a60055f8a73ffffffffffffffffffffffffffffffffffffffff1673ffffffffffffffffffffffffffffffffffffffff1681526020019081526020015f205f8282546111c3919061272a565b925050819055505f60055f8a73ffffffffffffffffffffffffffffffffffffffff1673ffffffffffffffffffffffffffffffffffffffff1681526020019081526020015f20540361138c575f5f90505b60068054905081101561138a578873ffffffffffffffffffffffffffffffffffffffff166006828154811061124b5761124a612b48565b5b905f5260205f20015f9054906101000a900473ffffffffffffffffffffffffffffffffffffffff1673ffffffffffffffffffffffffffffffffffffffff160361137d57600660016006805490506112a2919061272a565b815481106112b3576112b2612b48565b5b905f5260205f20015f9054906101000a900473ffffffffffffffffffffffffffffffffffffffff16600682815481106112ef576112ee612b48565b5b905f5260205f20015f6101000a81548173ffffffffffffffffffffffffffffffffffffffff021916908373ffffffffffffffffffffffffffffffffffffffff160217905550600680548061134657611345612b75565b5b600190038181905f5260205f20015f6101000a81549073ffffffffffffffffffffffffffffffffffffffff0219169055905561138a565b8080600101915050611213565b505b8a60045f82825461139d919061272a565b925050819055505050505050505050505050565b5f5f5f6113bc611d85565b915091505f82826113cd919061272a565b876113d891906124d0565b86836113e491906124d0565b6113ee919061263b565b8584846113fb919061272a565b8961140691906124d0565b61141091906124d0565b61141a919061253e565b90508093505050509392505050565b5f7fffffffffffffffffffffffffffffffffffffffffffffffffffffffff7487392754905090565b5f81670de0b6b3a76400008461146791906124d0565b611471919061253e565b905092915050565b60035481565b5f34116114c1576040517f08c379a00000000000000000000000000000000000000000000000000000000081526004016114b890612bec565b60405180910390fd5b5f6002541180156114d357505f600354115b611512576040517f08c379a000000000000000000000000000000000000000000000000000000000815260040161150990612c54565b60405180910390fd5b5f3490505f6003548260025461152891906124d0565b611532919061253e565b90506115736040518060400160405280601381526020017f526571756972656420746f6b656e733a2025730000000000000000000000000081525082611fe0565b61164a6040518060400160405280601381526020017f42616c616e63652020202020202020203a25730000000000000000000000000081525060015f9054906101000a900473ffffffffffffffffffffffffffffffffffffffff1673ffffffffffffffffffffffffffffffffffffffff166370a08231336040518263ffffffff1660e01b81526004016116069190612351565b602060405180830381865afa158015611621573d5f5f3e3d5ffd5b505050506040513d601f19601f820116820180604052508101906116459190612582565b611fe0565b8060015f9054906101000a900473ffffffffffffffffffffffffffffffffffffffff1673ffffffffffffffffffffffffffffffffffffffff166370a08231336040518263ffffffff1660e01b81526004016116a59190612351565b602060405180830381865afa1580156116c0573d5f5f3e3d5ffd5b505050506040513d601f19601f820116820180604052508101906116e49190612582565b1015611725576040517f08c379a000000000000000000000000000000000000000000000000000000000815260040161171c90612a81565b60405180910390fd5b5f600254670de0b6b3a764000060035461173f91906124d0565b611749919061253e565b90505f600354670de0b6b3a764000060025461176591906124d0565b61176f919061253e565b9050858211156117b85785826040517f4343265b0000000000000000000000000000000000000000000000000000000081526004016117af92919061236a565b60405180910390fd5b848110156117ff5784826040517f88a709b30000000000000000000000000000000000000000000000000000000081526004016117f692919061236a565b60405180910390fd5b60015f9054906101000a900473ffffffffffffffffffffffffffffffffffffffff1673ffffffffffffffffffffffffffffffffffffffff166323b872dd3330866040518463ffffffff1660e01b815260040161185d939291906126f5565b6020604051808303815f875af1158015611879573d5f5f3e3d5ffd5b505050506040513d601f19601f8201168201806040525081019061189d91906126ca565b508260025f8282546118af919061263b565b925050819055508360035f8282546118c7919061263b565b925050819055505f60055f3373ffffffffffffffffffffffffffffffffffffffff1673ffffffffffffffffffffffffffffffffffffffff1681526020019081526020015f20540361197357600633908060018154018082558091505060019003905f5260205f20015f9091909190916101000a81548173ffffffffffffffffffffffffffffffffffffffff021916908373ffffffffffffffffffffffffffffffffffffffff1602179055505b3460055f3373ffffffffffffffffffffffffffffffffffffffff1673ffffffffffffffffffffffffffffffffffffffff1681526020019081526020015f205f8282546119bf919061263b565b925050819055503460045f8282546119d7919061263b565b92505081905550505050505050565b5f5f9054906101000a900473ffffffffffffffffffffffffffffffffffffffff1681565b5f5f8311611a4d576040517f08c379a0000000000000000000000000000000000000000000000000000000008152600401611a4490612cbc565b60405180910390fd5b5f611a5d846002546003546113b1565b9050611a82604051806060016040528060288152602001612e60602891398583611e44565b5f600254670de0b6b3a7640000600354611a9c91906124d0565b611aa6919061253e565b905080841015611aef5783816040517f4343265b000000000000000000000000000000000000000000000000000000008152600401611ae692919061236a565b60405180910390fd5b81471015611b32576040517f08c379a0000000000000000000000000000000000000000000000000000000008152600401611b2990612d4a565b60405180910390fd5b60015f9054906101000a900473ffffffffffffffffffffffffffffffffffffffff1673ffffffffffffffffffffffffffffffffffffffff166323b872dd3330886040518463ffffffff1660e01b8152600401611b90939291906126f5565b6020604051808303815f875af1158015611bac573d5f5f3e3d5ffd5b505050506040513d601f19601f82011682018060405250810190611bd091906126ca565b50611c106040518060400160405280601181526020017f4e656564656420746f207061793a20257300000000000000000000000000000081525083611fe0565b611c4f6040518060400160405280601181526020017f43757272656e742062616c616e3a20257300000000000000000000000000000081525047611fe0565b5f3373ffffffffffffffffffffffffffffffffffffffff1683604051611c7490612acc565b5f6040518083038185875af1925050503d805f8114611cae576040519150601f19603f3d011682016040523d82523d5f602084013e611cb3565b606091505b5050905080611cf7576040517f08c379a0000000000000000000000000000000000000000000000000000000008152600401611cee90612b2a565b60405180910390fd5b8560025f828254611d08919061263b565b925050819055508260035f828254611d20919061272a565b925050819055503373ffffffffffffffffffffffffffffffffffffffff167fcc65e4d9060ece2ecf63011ac580550b04c8daeba63fac4dfe8669353cd8885987855f604051611d719392919061276c565b60405180910390a282935050505092915050565b5f5f600754600854915091509091565b611d9d611ee3565b63389a75e1600c52805f526020600c208054421115611dc357636f5e88185f526004601cfd5b5f815550611dd081611f1a565b50565b611ddb611ee3565b8060601b611df057637448fbae5f526004601cfd5b611df981611f1a565b50565b60015f9054906101000a900473ffffffffffffffffffffffffffffffffffffffff1681565b5f63389a75e1600c52815f526020600c20549050919050565b5f6202a300905090565b611ede838383604051602401611e5c93929190612dc8565b6040516020818303038152906040527fca47c4eb000000000000000000000000000000000000000000000000000000007bffffffffffffffffffffffffffffffffffffffffffffffffffffffff19166020820180517bffffffffffffffffffffffffffffffffffffffffffffffffffffffff838183161783525050505061207c565b505050565b7fffffffffffffffffffffffffffffffffffffffffffffffffffffffff74873927543314611f18576382b429005f526004601cfd5b565b611f22612096565b15611f87577fffffffffffffffffffffffffffffffffffffffffffffffffffffffff748739278160601b60601c91508181547f8be0079c531659141344cd1fd0a4f28419497f9722a3daafe3b4186f6b6457e05f5fa3811560ff1b8217815550611fdd565b7fffffffffffffffffffffffffffffffffffffffffffffffffffffffff748739278160601b60601c91508181547f8be0079c531659141344cd1fd0a4f28419497f9722a3daafe3b4186f6b6457e05f5fa3818155505b50565b6120788282604051602401611ff6929190612e04565b6040516020818303038152906040527fb60e72cc000000000000000000000000000000000000000000000000000000007bffffffffffffffffffffffffffffffffffffffffffffffffffffffff19166020820180517bffffffffffffffffffffffffffffffffffffffffffffffffffffffff838183161783525050505061207c565b5050565b6120938161208b61209a6120b9565b63ffffffff16565b50565b5f90565b5f6a636f6e736f6c652e6c6f6790505f5f835160208501845afa505050565b6120c4819050919050565b6120cc612e32565b565b5f5ffd5b5f73ffffffffffffffffffffffffffffffffffffffff82169050919050565b5f6120fb826120d2565b9050919050565b61210b816120f1565b8114612115575f5ffd5b50565b5f8135905061212681612102565b92915050565b5f60208284031215612141576121406120ce565b5b5f61214e84828501612118565b91505092915050565b5f819050919050565b61216981612157565b82525050565b5f6020820190506121825f830184612160565b92915050565b61219181612157565b811461219b575f5ffd5b50565b5f813590506121ac81612188565b92915050565b5f602082840312156121c7576121c66120ce565b5b5f6121d48482850161219e565b91505092915050565b5f5f604083850312156121f3576121f26120ce565b5b5f6122008582860161219e565b92505060206122118582860161219e565b9150509250929050565b5f81519050919050565b5f82825260208201905092915050565b5f819050602082019050919050565b61224d816120f1565b82525050565b5f61225e8383612244565b60208301905092915050565b5f602082019050919050565b5f6122808261221b565b61228a8185612225565b935061229583612235565b805f5b838110156122c55781516122ac8882612253565b97506122b78361226a565b925050600181019050612298565b5085935050505092915050565b5f6020820190508181035f8301526122ea8184612276565b905092915050565b5f5f5f60608486031215612309576123086120ce565b5b5f6123168682870161219e565b93505060206123278682870161219e565b92505060406123388682870161219e565b9150509250925092565b61234b816120f1565b82525050565b5f6020820190506123645f830184612342565b92915050565b5f60408201905061237d5f830185612160565b61238a6020830184612160565b9392505050565b5f819050919050565b5f6123b46123af6123aa846120d2565b612391565b6120d2565b9050919050565b5f6123c58261239a565b9050919050565b5f6123d6826123bb565b9050919050565b6123e6816123cc565b82525050565b5f6020820190506123ff5f8301846123dd565b92915050565b5f82825260208201905092915050565b7f416d6f756e74206f6620657468206d75737420626520677265617465722074685f8201527f656e203000000000000000000000000000000000000000000000000000000000602082015250565b5f61246f602483612405565b915061247a82612415565b604082019050919050565b5f6020820190508181035f83015261249c81612463565b9050919050565b7f4e487b71000000000000000000000000000000000000000000000000000000005f52601160045260245ffd5b5f6124da82612157565b91506124e583612157565b92508282026124f381612157565b9150828204841483151761250a576125096124a3565b5b5092915050565b7f4e487b71000000000000000000000000000000000000000000000000000000005f52601260045260245ffd5b5f61254882612157565b915061255383612157565b92508261256357612562612511565b5b828204905092915050565b5f8151905061257c81612188565b92915050565b5f60208284031215612597576125966120ce565b5b5f6125a48482850161256e565b91505092915050565b7f436f6e747261637420646f6573206e6f74206861766520656e6f75676820746f5f8201527f6b656e7300000000000000000000000000000000000000000000000000000000602082015250565b5f612607602483612405565b9150612612826125ad565b604082019050919050565b5f6020820190508181035f830152612634816125fb565b9050919050565b5f61264582612157565b915061265083612157565b9250828201905080821115612668576126676124a3565b5b92915050565b5f6040820190506126815f830185612342565b61268e6020830184612160565b9392505050565b5f8115159050919050565b6126a981612695565b81146126b3575f5ffd5b50565b5f815190506126c4816126a0565b92915050565b5f602082840312156126df576126de6120ce565b5b5f6126ec848285016126b6565b91505092915050565b5f6060820190506127085f830186612342565b6127156020830185612342565b6127226040830184612160565b949350505050565b5f61273482612157565b915061273f83612157565b9250828203905081811115612757576127566124a3565b5b92915050565b61276681612695565b82525050565b5f60608201905061277f5f830186612160565b61278c6020830185612160565b612799604083018461275d565b949350505050565b7f546f6b656e20726573657276657320776173206e6f74203000000000000000005f82015250565b5f6127d5601883612405565b91506127e0826127a1565b602082019050919050565b5f6020820190508181035f830152612802816127c9565b9050919050565b7f45544820726573657276657320776173206e6f7420302e0000000000000000005f82015250565b5f61283d601783612405565b915061284882612809565b602082019050919050565b5f6020820190508181035f83015261286a81612831565b9050919050565b7f4e6565642065746820746f2063726561746520706f6f6c2e00000000000000005f82015250565b5f6128a5601883612405565b91506128b082612871565b602082019050919050565b5f6020820190508181035f8301526128d281612899565b9050919050565b7f4e6f74206861766520656e6f75676820746f6b656e7320746f206372656174655f8201527f2074686520706f6f6c0000000000000000000000000000000000000000000000602082015250565b5f612933602983612405565b915061293e826128d9565b604082019050919050565b5f6020820190508181035f83015261296081612927565b9050919050565b7f4e65656420746f6b656e7320746f2063726561746520706f6f6c2e00000000005f82015250565b5f61299b601b83612405565b91506129a682612967565b602082019050919050565b5f6020820190508181035f8301526129c88161298f565b9050919050565b7f546865726520617265206e6f2045544820696e207265717565737400000000005f82015250565b5f612a03601b83612405565b9150612a0e826129cf565b602082019050919050565b5f6020820190508181035f830152612a30816129f7565b9050919050565b7f5573657220646f6573206e6f74206861766520656e6f75676820746f6b656e735f82015250565b5f612a6b602083612405565b9150612a7682612a37565b602082019050919050565b5f6020820190508181035f830152612a9881612a5f565b9050919050565b5f81905092915050565b50565b5f612ab75f83612a9f565b9150612ac282612aa9565b5f82019050919050565b5f612ad682612aac565b9150819050919050565b7f455448207472616e73666572206661696c6564000000000000000000000000005f82015250565b5f612b14601383612405565b9150612b1f82612ae0565b602082019050919050565b5f6020820190508181035f830152612b4181612b08565b9050919050565b7f4e487b71000000000000000000000000000000000000000000000000000000005f52603260045260245ffd5b7f4e487b71000000000000000000000000000000000000000000000000000000005f52603160045260245ffd5b7f546865726520617265206e6f2045544820696e207472616e73616374696f6e005f82015250565b5f612bd6601f83612405565b9150612be182612ba2565b602082019050919050565b5f6020820190508181035f830152612c0381612bca565b9050919050565b7f506f6f6c206e6f7420696e697469616c697a65640000000000000000000000005f82015250565b5f612c3e601483612405565b9150612c4982612c0a565b602082019050919050565b5f6020820190508181035f830152612c6b81612c32565b9050919050565b7f416d6f756e74206d7573742062652067726561746572207468616e20300000005f82015250565b5f612ca6601d83612405565b9150612cb182612c72565b602082019050919050565b5f6020820190508181035f830152612cd381612c9a565b9050919050565b7f436f6e747261637420646f6573206e6f74206861766520656e6f7567682077655f8201527f6920617420746865206d6f6d656e740000000000000000000000000000000000602082015250565b5f612d34602f83612405565b9150612d3f82612cda565b604082019050919050565b5f6020820190508181035f830152612d6181612d28565b9050919050565b5f81519050919050565b8281835e5f83830152505050565b5f601f19601f8301169050919050565b5f612d9a82612d68565b612da48185612405565b9350612db4818560208601612d72565b612dbd81612d80565b840191505092915050565b5f6060820190508181035f830152612de08186612d90565b9050612def6020830185612160565b612dfc6040830184612160565b949350505050565b5f6040820190508181035f830152612e1c8185612d90565b9050612e2b6020830184612160565b9392505050565b7f4e487b71000000000000000000000000000000000000000000000000000000005f52605160045260245ffdfe46726f6d20257320746f6b656e732c2072656365697665722077696c6c206765742025732077656946726f6d20257320657468732c2072656365697665722077696c6c2067657420257320746f6b656e73a2646970667358221220b6968fb369c653ff43a3820daa8e9314304fa71e28c27013f2e1d95319f0d18264736f6c634300081c0033","linkReferences":{}},"methodIdentifiers":{"addLiquidity(uint256,uint256)":"9cd441da","calculateExchangeRateFromTokensAmount(uint256,uint256)":"93e7e544","cancelOwnershipHandover()":"54d1f13d","completeOwnershipHandover(address)":"f04e283e","createPool(uint256)":"8259e6a0","ethReserves()":"97adce1c","getInputPrice(uint256,uint256,uint256)":"89f2a871","getLP()":"82c428f9","getLPT(address)":"0221a052","getSwapFee()":"d4cadf68","owner()":"8da5cb5b","ownershipHandoverExpiresAt(address)":"fee81cf4","removeAllLiquidity(uint256,uint256)":"58ad6de4","removeLiquidity(uint256,uint256,uint256)":"857620e1","renounceOwnership()":"715018a6","requestOwnershipHandover()":"25692962","swapETHForTokens(uint256)":"2eab2841","swapTokensForETH(uint256,uint256)":"a22280a6","token()":"fc0c546a","tokenAddress()":"9d76ea58","tokenReserves()":"4bad9510","transferOwnership(address)":"f2fde38b"},"id":21}